:100000000C9430000C94E4030C94E4050C94E40587
:100010000C94E4050C94E4050C94E4050C94E405BC
:100020000C94E4050C94E4050C94E4050C94E405AC
:100030000C94E4050C94E4050C94E4050C94E4059C
:100040000C94E4050C94E4050C94E4050C94E4058C
:100050000C94E4050060009F000BDE009F00A08070
:1000600011241FBECFE5D8E0DEBFCDBFE4E5F0E050
:1000700040E017C0B591A59135912591059107FDF7
:100080000CC095918591EF01F92FE82F05900D9205
:10009000A217B307D9F7FE0104C01D92A217B30738
:1000A000E1F7E036F40731F70E945F010C94980500
:0400B000F894FFCFF2
:1000B40085B38F6085BB83E40E94F004807F09F4DC
:1000C400F8C085B3807F85BBA89A8FE19EE4019731
:1000D400F1F700C0000083E40E94F00484FF08C02C
:1000E4008FEC97E00197F1F700C0000087E30895D3
:1000F40083E40E94F00485FF08C08FEC97E0019729
:10010400F1F700C0000088E3089583E40E94F0043E
:1001140086FF08C08FEC97E00197F1F700C000005C
:1001240089E3089583E40E94F004882344F48FEC67
:1001340097E00197F1F700C000008FE2089585B3BE
:10014400807F85BBA99A8FE19EE40197F1F700C0F7
:10015400000083E40E94F00484FF08C08FEC97E061
:100164000197F1F700C0000084E3089583E40E943E
:10017400F00485FF08C08FEC97E00197F1F700C009
:10018400000085E3089583E40E94F00486FF08C01C
:100194008FEC97E00197F1F700C0000086E3089523
:1001A40083E40E94F004882344F48FEC97E00197E1
:1001B400F1F700C000008AE2089585B3807F85BB13
:1001C400AA9A8FE19EE40197F1F700C0000083E44E
:1001D4000E94F00484FF08C08FEC97E00197F1F7C8
:1001E40000C0000081E3089583E40E94F00485FFC9
:1001F40008C08FEC97E00197F1F700C0000082E39C
:10020400089583E40E94F00486FF08C08FEC97E011
:100214000197F1F700C0000083E3089583E40E948E
:10022400F004882344F48FEC97E00197F1F700C0C1
:1002340000008DE2089585B3807F85BBAB9A8FE182
:100244009EE40197F1F700C0000083E40E94F004EB
:1002540084FF08C08FEC97E00197F1F700C000001D
:1002640084E5089583E40E94F00485FF08C08FECC0
:1002740097E00197F1F700C0000080E3089583E45C
:100284000E94F00486FF08C08FEC97E00197F1F715
:1002940000C000008DE3089583E40E94F0048823E5
:1002A40044F48FEC97E00197F1F700C000008BE273
:0A02B400089585B38F6085BBFECE70
:1002BE00789440E067E081E00E9466050E94840326
:1002CE000E94AC0582E00E94D10581E00E941104DB
:1002DE0080E690E00E9489050E945A0080939F005C
:1002EE0080919F00823399F1833309F45DC081338D
:1002FE0009F087C080E00E9440050E94E805349B0B
:10030E00FECF81E00E94110480E790E00E948905F3
:10031E0064B175B180E090E00E9447032AE137E6B0
:10032E004CE950E40E94DD050E94B505CB010E9408
:10033E00BC0489E790E00E9489052FEF89E698E1D9
:10034E00215080409040E1F700C00000C9CF81E00D
:10035E000E9440050E94E805349BFECF81E00E947A
:10036E0011048CE790E00E94890564B175B180E0BC
:10037E0090E00E9447032AE137E64CE950E40E94E0
:10038E00DD050E94B505CB010E94BC0489E790E013
:10039E000E9489052FEF89E698E121508040904018
:1003AE00E1F700C000009CCF82E00E9440050E9451
:1003BE00E805349BFECF81E00E94110485E890E0B1
:1003CE000E94890564B175B180E090E00E944703F8
:1003DE002AE137E64CE950E40E94DD050E94B5059E
:1003EE00CB010E94BC0489E790E00E9489052FEFA3
:1003FE0089E698E1215080409040E1F700C000006E
:10040E006FCF81E00E9411048EE890E00E94890572
:10041E002FEF8DE399E4215080409040E1F700C02A
:10042E00000081E00E94110480E690E00E948905A0
:0A043E000E945A0080939F0053CFE4
:1004480041155105D9F14130510509F071C0823487
:10045800A1F018F4813431F008958334C9F084345C
:1004680011F108952AB381E090E002C0880F991F26
:100478006A95E2F7822B8ABB089527B381E090E062
:1004880002C0880F991F6A95E2F7822B87BB0895EF
:1004980024B381E090E002C0880F991F6A95E2F7C3
:1004A800822B84BB089521B381E090E002C0880FBD
:1004B800991F6A95E2F7822B81BB08958234A9F0CF
:1004C80018F4813431F008958334D9F0843429F153
:1004D80008952AB381E090E002C0880F991F6A95B9
:1004E800E2F7809582238ABB089527B381E090E0E4
:1004F80002C0880F991F6A95E2F78095822387BB0F
:10050800089524B381E090E002C0880F991F6A958E
:10051800E2F78095822384BB089521B381E090E0BF
:1005280002C0880F991F6A95E2F78095822381BBE4
:02053800089524
:10053A000FC00E94C30538F00E94CA0520F0952317
:10054A0011F00C94D7050C94E10511240C94BD0507
:10055A000E945F0470F3959FC1F3950F50E0551FF9
:10056A00629FF001729FBB27F00DB11D639FAA27FE
:10057A00F00DB11DAA1F649F6627B00DA11D661F4D
:10058A00829F2227B00DA11D621F739FB00DA11D6E
:10059A00621F839FA00D611D221F749F3327A00D28
:1005AA00611D231F849F600D211D822F762F6A2FC4
:1005BA0011249F5750409AF0F1F088234AF0EE0F29
:1005CA00FF1FBB1F661F771F881F91505040A9F756
:1005DA009E3F510580F00C94D7050C94BD055F3FF2
:1005EA00E4F3983ED4F3869577956795B795F79592
:1005FA00E7959F5FC1F7FE2B880F911D969587950A
:04060A0097F90895BF
:10060E00CF92DF92EF92FF920F931F93CF93DF93D0
:10061E007C018B01992324F4882799278E199F0931
:10062E00F801C0E0D0E00F2EFAE0CF2ED12CF02D45
:10063E0001C0E9019E012F5F3F4FB6010E940505E3
:10064E00805D8193862F972F1816190694F3FF203D
:10065E003CF4F801E20FF31F8DE280832F5F3F4FD2
:10066E00F801E20FF31F1082C8010E949F04DF9170
:10067E00CF911F910F91FF90EF90DF90CF90089543
:10068E00E89409C097FB3EF490958095709561951E
:10069E007F4F8F4F9F4F9923A9F0F92F96E9BB27D4
:1006AE009395F695879577956795B795F111F8CF50
:1006BE00FAF4BB0F11F460FF1BC06F5F7F4F8F4FBB
:1006CE009F4F16C0882311F096E911C0772321F0B1
:1006DE009EE8872F762F05C0662371F096E8862F49
:1006EE0070E060E02AF09A95660F771F881FDAF7A0
:0A06FE00880F9695879597F90895E7
:1007080060EF70E081E40E942D0541E050E061E077
:1007180070E082E40E94240241E050E062E070E070
:1007280082E40E94240241E050E063E070E082E449
:100738000E9424022FEF89EF90E0215080409040E2
:10074800E1F700C00000C29882E00E94110488E22C
:100758000E9411048CE00E94110481E00E9411049F
:020768000895F2
:10076A000E94670488F09F5798F0B92F9927B751CC
:10077A00B0F0E1F0660F771F881F991F1AF0BA953B
:10078A00C9F714C0B13091F00E94BC05B1E00895D8
:10079A000C94BC05672F782F8827B85F39F0B93FCA
:1007AA00CCF3869577956795B395D9F73EF49095EE
:0E07BA008095709561957F4F8F4F9F4F0895EA
:1007C8001F920F920FB60F9211242F933F934F93BE
:1007D8005F936F937F938F939F93AF93BF93EF93A1
:1007E800FF9381E00E94110480E690E00E94890551
:1007F8000E945A0080939F00FF91EF91BF91AF91A3
:100808009F918F917F916F915F914F913F912F9120
:0A0818000F900FBE0F901F9018956F
:10082200CF93C82FC1988FE19EE40197F1F700C0E2
:1008320000008BB38F709C2F907F892B8BBB0E9403
:10084200A3058FE99FE00197F1F700C000008BB389
:10085200282F2F7030E1C39FC0011124822B8BBB44
:100862000E94A3058FE99FE00197F1F700C0000005
:04087200CF91089585
:10087600CF93C82FC19A8BB38F709C2F907F892BF3
:100886008BBB0E94A3058FE99FE00197F1F700C09B
:1008960000008BB3282F2F7030E1C39FC0011124B5
:1008A600822B8BBB0E94A3058FE99FE00197F1F78E
:0808B60000C00000CF9108957D
:1008BE0057FD9058440F551F59F05F3F71F0479503
:1008CE00880F97FB991F61F09F3F79F087950895E8
:1008DE00121613061406551FF2CF4695F1DF08C007
:1008EE00161617061806991FF1CF86957105610524
:0408FE0008940895BD
:10090200813051F028F0823071F0833099F00895EF
:1009120085B78C7F85BF089585B7816085BF85B710
:100922008D7F85BF089585B7826085BF85B78E7F2D
:0C09320085BF089585B7836085BF0895D8
:10093E00FC0101900020E9F73197E81BF90B9F01AC
:10094E0021503109121613067CF4E80FF91FDC0151
:10095E0080E090E04C9152915D934083019621503E
:0A096E00310982179307B4F30895CE
:10097800CF93DF93CDB7DEB760970FB6F894DEBF9D
:100988000FBECDBFBE016F5F7F4F0E940703CE0130
:1009980001960E94890560960FB6F894DEBF0FBED7
:0809A800CDBFDF91CF9108954E
:1009B000982F87B18F7387B9EFE9FFE03197F1F78F
:1009C00000C0000027B1F0E49F9FC0011124822BDA
:1009D00087B98FE99FE00197F1F700C00000089503
:1009E000823459F018F4813431F00DC0833439F079
:1009F000843439F008C089B3089586B3089583B369
:0A0A0000089580B308958FEF089564
:100A0A0097FB072E16F4009407D077FD09D00E94B1
:100A1A00190507FC05D03EF4909581959F4F0895DE
:080A2A00709561957F4F08955E
:100A3200AA1BBB1B51E107C0AA1FBB1FA617B70702
:100A420010F0A61BB70B881F991F5A95A9F780951E
:080A52009095BC01CD0108954F
:100A5A00823459F018F4813431F00895833439F02E
:100A6A00843439F008956ABB089567BB089564BB5E
:060A7A00089561BB089520
:100A800097B1987F97B9EFE9FFE03197F1F700C090
:100A9000000097B1892B87B98FE99FE00197F1F7A3
:060AA00000C000000895F3
:100AA60096B1987F96B9EFE9FFE03197F1F700C06C
:100AB600000096B1892B86B98FE99FE00197F1F77F
:060AC60000C000000895CD
:100ACC00CF93DF93C82FD62F842F0E9440058D2FF4
:100ADC000E9453058C2F0E94D8040E94E605DF91DA
:040AEC00CF91089509
:100AF000092E0394000C11F4882352F0BB0F40F42C
:100B0000BF2B11F460FF04C06F5F7F4F8F4F9F4F6B
:020B1000089546
:100B1200CF93DF93EC018881882331F021960E94E4
:0E0B22003B0489918111FBCFDF91CF910895A3
:100B3000EC010E94ED050E94EC05CE010E94EE053D
:060B4000CE010E94EA054F
:100B4600C39A8FE19EE40197F1F700C00000C398B5
:020B5600089500
:100B58006FE070E083E40E942D0585B38F6085BB4C
:020B68000895EE
:0E0B6A000E94B5036894B1110C94BD05089566
:0E0B7800E894BB2766277727CB0197F90895ED
:0E0B860000240A94161617061806090608958C
:0E0B940000240A94121613061406050608958E
:0C0BA2000E9481048BB780648BBF089513
:0C0BAE0097F99F6780E870E060E0089510
:080BBA000E949D020C947805D5
:060BC2009FEF80EC089596
:040BC8000C94000089
:040BCC00379A0895B7
:040BD000369A0895B4
:040BD4000E94580023
:020BD80008957E
:020BDA0008957C
:020BDC0008957A
:100BDE00656E74657220706F74206E756D3A2000AC
:100BEE00706F742031203A20006D5600706F7420A3
:100BFE0032203A2000706F742033203A2000696E44
:0F0C0E0076616C696420696E7075743E3A2800D7
:00000001FF
