:100000000C942A000C944E030C944E030C944E0353
:100010000C944E030C944E030C944E030C944E031C
:100020000C944E030C944E030C944E030C944E030C
:100030000C944E030C944E030C944E030C944E03FC
:100040000C944E030C944E030C944E030C944E03EC
:100050000C944E0311241FBECFE5D8E0DEBFCDBF08
:0C0060000E9428010C942803F894FFCFA4
:10006C0041155105D9F14130510509F071C0823467
:10007C00A1F018F4813431F008958334C9F084343C
:10008C0011F108952AB381E090E002C0880F991F06
:10009C006A95E2F7822B8ABB089527B381E090E042
:1000AC0002C0880F991F6A95E2F7822B87BB0895CF
:1000BC0024B381E090E002C0880F991F6A95E2F7A3
:1000CC00822B84BB089521B381E090E002C0880F9D
:1000DC00991F6A95E2F7822B81BB08958234A9F0AF
:1000EC0018F4813431F008958334D9F0843429F133
:1000FC0008952AB381E090E002C0880F991F6A9599
:10010C00E2F7809582238ABB089527B381E090E0C3
:10011C0002C0880F991F6A95E2F78095822387BBEE
:10012C00089524B381E090E002C0880F991F6A956E
:10013C00E2F78095822384BB089521B381E090E09F
:10014C0002C0880F991F6A95E2F78095822381BBC4
:02015C00089504
:10015E0041155105D9F14130510509F071C0823474
:10016E00A1F018F4813431F008958334C9F0843449
:10017E0011F108952BB381E090E002C0880F991F12
:10018E006A95E2F7822B8BBB089528B381E090E04D
:10019E0002C0880F991F6A95E2F7822B88BB0895DB
:1001AE0025B381E090E002C0880F991F6A95E2F7AF
:1001BE00822B85BB089522B381E090E002C0880FA8
:1001CE00991F6A95E2F7822B82BB08958234A9F0BB
:1001DE0018F4813431F008958334D9F0843429F140
:1001EE0008952BB381E090E002C0880F991F6A95A5
:1001FE00E2F7809582238BBB089528B381E090E0CF
:10020E0002C0880F991F6A95E2F78095822388BBFA
:10021E00089525B381E090E002C0880F991F6A957A
:10022E00E2F78095822385BB089522B381E090E0AA
:10023E0002C0880F991F6A95E2F78095822382BBD0
:02024E00089511
:100250000E94FF020E94F00186E00E94770281E086
:1002600090E00E94210260E181E40E94790180E136
:100270000E94C0020E949C022FEF80E792E0215072
:1002800080409040E1F700C00000C0E0D0E011E401
:1002900080E090E00E94E3028823D1F3CE010F9723
:1002A000419730F46C2F605181E00E943C030CC0F8
:1002B000C032D1054CF081E00E944D0260E080E048
:1002C0000E943C03C0E0D0E01F5F60E1812F0E94EC
:1002D00079012FEF83EC99E0215080409040E1F7C5
:1002E00000C0000080E10E94C0020E949C02219692
:0202F000CFCF6E
:1002F200CF93DF93C82FD62F41E050E064E070E047
:1003020082E40E94AF0040E050E064E070E082E4EA
:100312000E94AF0086E00E944A0341E050E064E0A0
:1003220070E082E40E94AF008FE19EE40197F1F752
:1003320000C0000040E050E064E070E082E40E940F
:10034200AF0082E00E944A038D2F0E944A038C2F45
:100352000E944A0341E050E064E070E082E40E94BF
:10036200AF008FE19EE40197F1F700C00000DF913A
:04037200CF9108958A
:10037600823499F018F4813431F02DC08334B9F009
:100386008434F9F028C029B381E090E002C0880FD8
:10039600991F6A95E2F78223089526B381E090E0DB
:1003A60002C0880F991F6A95E2F78223089523B346
:1003B60081E090E002C0880F991F6A95E2F78223D8
:1003C600089520B381E090E002C0880F991F6A95D6
:0A03D600E2F7822308958FEF0895E7
:1003E00060EF70E081E40E94150341E050E061E0BD
:1003F00070E082E40E94360041E050E062E070E08C
:1004000082E40E94360041E050E063E070E082E464
:100410000E9436002FEF89EF90E0215080409040FD
:10042000E1F700C00000C29882E00E944D0288E21D
:100430000E944D028CE00E944D0281E00E944D021C
:0204400008951D
:100442006C984DB19C0122953295307F3227207FE6
:100452003227242B2DB9892BB1F041E050E065E021
:1004620070E082E40E94360041E050E064E070E017
:1004720082E40E94360041E050E067E070E082E4EE
:100482000E94360007C041E050E066E070E082E47E
:080492000E9436006E9A0895E5
:10049A00CF93C82FC1988FE19EE40197F1F700C06E
:1004AA0000008BB38F709C2F907F892B8BBB0E948F
:1004BA0033038FE99FE00197F1F700C000008BB387
:1004CA00282F2F7030E1C39FC0011124822B8BBBD0
:1004DA000E9433038FE99FE00197F1F700C0000003
:0404EA00CF91089511
:1004EE009DB19C7F9DB97098833089F028F4882344
:1004FE0049F0823049F00895853071F050F0863021
:10050E0081F00895709A0895689A709A0895689A7D
:10051E000895699A709A08958DB183608DB9709A15
:0A052E0008958DB183608DB9089522
:10053800CF93C82FC19A8BB38F709C2F907F892B34
:100548008BBB0E9433038FE99FE00197F1F700C04E
:1005580000008BB3282F2F7030E1C39FC0011124F6
:10056800822B8BBB0E9433038FE99FE00197F1F741
:0805780000C00000CF910895BE
:10058000CF93C82F41E050E064E070E082E40E9425
:10059000AF0040E050E064E070E082E40E94AF0011
:1005A00083E00E944A038C2F0E944A030E94450365
:1005B000C82F41E050E064E070E082E40E94AF00A8
:0605C0008C2FCF9108957D
:1005C6008230910589F08630910541F0892B91F4AE
:1005D60060E070E082E40E94BB01089566E070E08E
:1005E60084E40E94BB01089562E070E084E40E9406
:0805F600BB0108958FEF089589
:1005FE0040E050E060E070E082E40E94360040E0AF
:10060E0050E066E070E084E40E94360040E050E086
:0C061E0062E070E084E40E943600089561
:10062A00823459F018F4813431F00895833439F062
:10063A00843439F008956ABB089567BB089564BB92
:06064A00089561BB089554
:10065000EC010E9453030E945203CE010E945403F6
:06066000CE010E945003D0
:10066600C39A8FE19EE40197F1F700C00000C3989A
:020676000895E5
:1006780020E4829FC00111246068862B0E944D02ED
:020688000895D3
:0A068A0080E00E944A038FB108953A
:080694008FB9779BFECF08959A
:04069C000C940000BA
:0406A0000E94340080
:0206A4000895B7
:0206A6000895B5
:0206A8000895B3
:00000001FF
