:100000000C9439000C94E8020C94E8020C94E80279
:100010000C94E8020C94E8020C9492010C94E8020F
:100020000C94E8020C94E8020C94E8020C94E802A8
:100030000C94E8020C94E8020C94E8020C94E80298
:100040000C94E8020C94E8020C94E8020C94E80288
:100050000C94E802D100D500D900DD00E100E800F1
:10006000EF00F600FA00010108010F012001130161
:100070001A0111241FBECFE5D8E0DEBFCDBF0E941C
:0A0080007E020C94A902F894FFCF51
:10008A0041155105D9F14130510509F071C0823449
:10009A00A1F018F4813431F008958334C9F084341E
:1000AA0011F108952AB381E090E002C0880F991FE8
:1000BA006A95E2F7822B8ABB089527B381E090E024
:1000CA0002C0880F991F6A95E2F7822B87BB0895B1
:1000DA0024B381E090E002C0880F991F6A95E2F785
:1000EA00822B84BB089521B381E090E002C0880F7F
:1000FA00991F6A95E2F7822B81BB08958234A9F091
:10010A0018F4813431F008958334D9F0843429F114
:10011A0008952AB381E090E002C0880F991F6A957A
:10012A00E2F7809582238ABB089527B381E090E0A5
:10013A0002C0880F991F6A95E2F78095822387BBD0
:10014A00089524B381E090E002C0880F991F6A9550
:10015A00E2F78095822384BB089521B381E090E081
:10016A0002C0880F991F6A95E2F78095822381BBA6
:02017A000895E6
:10017C00E82F8FB58C7F8FBD8EB5877E8EBD8E2F71
:10018C0090E0FC013197EF30F10508F053C0E65DCB
:10019C00FF4F0C94D7028FB581608FBD08958FB53A
:1001AC0082608FBD08958FB583608FBD08958EB525
:1001BC0088608EBD08958FB581608FBD8EB58860C7
:1001CC008EBD08958FB582608FBD8EB588608EBD53
:1001DC0008958FB583608FBD8EB588608EBD0895F0
:1001EC008EB580618EBD08958FB581608FBD8EB543
:1001FC0080618EBD08958FB582608FBD8EB5806194
:10020C008EBD08958FB583608FBD8EB580618EBD18
:10021C0008958EB588618EBD08958FB582608FBDAF
:10022C008EB588618EBD08958FB583608FBD8EB5F8
:06023C0088618EBD0895EB
:10024200CF92DF92EF92FF920F931F93CF93DF93A0
:100252007C018B01992324F4882799278E199F0901
:10026200F801C0E0D0E00F2EFAE0CF2ED12CF02D15
:1002720001C0E9019E012F5F3F4FB6010E94430278
:10028200805D8193862F972F1816190694F3FF200D
:100292003CF4F801E20FF31F8DE280832F5F3F4FA2
:1002A200F801E20FF31F1082C8010E940A02DF91D7
:1002B200CF911F910F91FF90EF90DF90CF90089513
:1002C20060EF70E081E40E946B0241E050E061E087
:1002D20070E082E40E94450041E050E062E070E09C
:1002E20082E40E94450041E050E063E070E082E475
:1002F2000E9445002FEF89EF90E02150804090400E
:10030200E1F700C00000C29882E00E94BC0188E2CE
:100312000E94BC018CE00E94BC0181E00E94BC01F1
:0203220008953C
:100324001F920F920FB60F9211242F933F934F9366
:100334005F936F937F938F939F93AF93BF93EF9349
:10034400FF9381E00E94BC010E94E50290E00E94BC
:100354002702FF91EF91BF91AF919F918F917F9170
:100364006F915F914F913F912F910F900FBE0F901E
:040374001F90189529
:10037800CF93C82FC1988FE19EE40197F1F700C091
:1003880000008BB38F709C2F907F892B8BBB0E94B2
:10039800BE028FE99FE00197F1F700C000008BB320
:1003A800282F2F7030E1C39FC0011124822B8BBBF3
:1003B8000E94BE028FE99FE00197F1F700C000009C
:0403C800CF91089534
:1003CC00CF93C82FC19A8BB38F709C2F907F892BA2
:1003DC008BBB0E94BE028FE99FE00197F1F700C032
:1003EC0000008BB3282F2F7030E1C39FC001112464
:1003FC00822B8BBB0E94BE028FE99FE00197F1F725
:08040C0000C00000CF9108952B
:10041400FC0101900020E9F73197E81BF90B9F01DB
:1004240021503109121613067CF4E80FF91FDC0180
:1004340080E090E04C9152915D934083019621506D
:0A044400310982179307B4F30895FD
:10044E00CF93DF93CDB7DEB760970FB6F894DEBFCC
:10045E000FBECDBFBE016F5F7F4F0E942101CE0147
:10046E0001960E948F0260960FB6F894DEBF0FBE03
:08047E00CDBFDF91CF9108957D
:1004860097FB072E16F4009407D077FD09D00E943B
:10049600570207FC05D03EF4909581959F4F08952D
:0804A600709561957F4F0895E8
:1004AE00AA1BBB1B51E107C0AA1FBB1FA617B7078C
:1004BE0010F0A61BB70B881F991F5A95A9F78095A8
:0804CE009095BC01CD010895D9
:1004D600823459F018F4813431F00895833439F0B8
:1004E600843439F008956ABB089567BB089564BBE8
:0604F600089561BB0895AA
:1004FC000E94610165E080E00E94B40280E00E94ED
:10050C009E020E94C7020E94E1020E94DD027894C2
:02051C00FFCF0F
:10051E00CF93DF93EC018881882331F021960E94DE
:0E052E00E60189918111FBCFDF91CF910895F5
:10053C009EB59F7B9EBD2EB530E4839FC0011124D8
:06054C00822B8EBD089514
:10055200EC010E94ED020E94EC02CE010E94EE022A
:06056200CE010E94EA0236
:10056800CF93C82F862F0E94D0028C2F0E94BE00E6
:04057800CF91089582
:10057C00C39A8FE19EE40197F1F700C00000C39885
:02058C000895D0
:10058E0040E050E066E070E084E40E94450042984E
:02059E000895BE
:0E05A0009EB5987F9EBD9EB5892B8EBD089599
:0C05AE00EE0FFF1F0590F491E02D099462
:0805BA0089B7806289BF089532
:0805C2008EB580688EBD08951E
:0605CA0086B597B5089507
:0405D0000C94000087
:0405D4000E9443003E
:0205D800089584
:0205DA00089582
:0205DC00089580
:00000001FF
