:100000000C943F000C94B2110C94B2110C94B211E8
:100010000C94B2110C94B2110C94B2110C94AC115A
:100020000C94B2110C94B2110C94B2110C94B21144
:100030000C94B2110C94B2110C94B2110C94B21134
:100040000C94B2110C94B2110C94B2110C94B21124
:100050000C94B2110060063C80063C0671002372CD
:10006000067106C28006C206C70023A706C706ECB3
:100070008006EC06ED0023AC06ED06F480001124AA
:100080001FBECFE5D8E0DEBFCDBFE4E5F0E040E045
:1000900017C0B591A59135912591059107FD0CC02B
:1000A00095918591EF01F92FE82F05900D92A217F8
:1000B000B307D9F7FE0104C01D92A217B307E1F7F9
:1000C000ED37F40731F70E949B0E0C944E11F89413
:0200D000FFCF60
:1000D2004F925F926F927F928F929F92AF92BF9256
:1000E200CF92DF92EF92FF920F93CF93DF934C0167
:1000F2006B015A012901CA010E942B053C01892B7F
:1001020009F40FC18AE290E00E942B05EC01892BD1
:10011200C1F08AE2DE011D928A95E9F7788E6F8A34
:10012200A50165EA70E0C3010E946411B1E0AB1A57
:10013200B1088F89988DA80EB91EC114D10429F473
:100142001EC0C3010E94CF0EECC0F6018081898FD0
:100152008081882399F0AE01465E5F4F319688E038
:10016200C80ED11CCF012191DA012D93AD01DC0122
:100172008C91882319F0EC15FD05A1F718A2043023
:1001820008F003E00E8B0BA36E01B2E0CB0ED11C84
:10019200C6010E94A011CE010C960E94A011D9871F
:1001A200C88784E090E0801B91099D878C87DB8B58
:1001B200CA8BA201B401C5010E9488099983888370
:1001C200E114F10419F0F701D183C0830FB6F8945A
:1001D2000F928091F2068F5F8093F2068091E9067A
:1001E2009091EA06892BD1F5D093EA06C093E906ED
:1001F2008091F206813009F041C081E796E00E94C9
:100202002A118AE796E00E942A1183E896E00E946A
:100212002A118CE896E00E942A1189EB96E00E944E
:100222002A1180EB96E00E942A1187EA96E00E944A
:100232002A118EE996E00E942A1185E996E00E9431
:100242002A1189EB96E09093E8068093E70680EB0B
:1002520096E09093E6068093E50610C08091F00642
:1002620081110CC0E091E906F091EA0696898E8927
:10027200891720F0D093EA06C093E9068091ED0633
:100282008F5F8093ED0689A38E899091F10698176E
:1002920010F48093F10690E0FC01EE0FFF1FEE0FC9
:1002A200FF1FEE0FFF1F8E0F9F1FFC01EF58F94F2C
:1002B2000180F281E02DFD83EC83848195819F830F
:1002C2008E83A481B5811396DC92CE921297D58249
:1002D200C482EE89F0E0CF01880F991F880F991F21
:1002E200880F991FE80FF91FEF58F94FFB87EA872C
:1002F20080818F5F80830F900FBE8091F0068823EC
:1003020061F0E091E906F091EA0696898E899817E4
:1003120030F40E94420C81E005C081E003C081E01C
:1003220001C08FEFDF91CF910F91FF90EF90DF909F
:10033200CF90BF90AF909F908F907F906F905F9083
:040342004F9008953B
:10034600EF92FF920F931F93CF93DF938091EB066B
:10035600811104C1C091E306D091E4067E018FEFBE
:10036600E81AF80AF092E406E092E306E114F104D2
:10037600B9F48091E7069091E8062091E506309160
:10038600E6063093E8062093E7069093E606809308
:10039600E5068091EE068F5F8093EE060E946E1052
:1003A6008091DF069091E006E816F90610F480E0E9
:1003B600B9C080E061E0E091E706F091E80690813F
:1003C600911107C02FEF3FEF3093E0062093DF0631
:1003D600A9C0E091E706F091E8060580F681E02DD8
:1003E6000680F781E02D22813381E216F30628F498
:1003F6003093E0062093DF0695C0A285B38524815D
:10040600358146815781E9015D834C832681378199
:1004160044815581E9015B834A83AF014E5F5F4F9B
:1004260011962D913C9112972417350731F42681A8
:10043600378112963C932E931197138612869C91C0
:1004460091509C93A489B589109719F12685378513
:1004560000891189E9011D830C832089318906856C
:100466001785E9011B830A8311960D911C9112973A
:100476009F01245F3F4F0217130731F4208931890A
:1004860012963C932E931197158A148A9C9191503B
:100496009C9326899091F106921710F42093F10609
:1004A60030E0D901AA0FBB1FAA0FBB1FAA0FBB1FA3
:1004B6002A0F3B1FD901AF58B94F11960D90BC9129
:1004C600A02DB583A48314962D913C91159737835F
:1004D600268314962D913C911597E9015B834A83F7
:1004E60015965C934E931497A689B0E09D01220F52
:1004F600331F220F331F220F331FA20FB31FAF5814
:10050600B94FB387A2879C919F5F9C93A091E90600
:10051600B091EA06268956969C91921708F04BCF21
:10052600862F49CFE091E906F091EA06268930E068
:10053600F901EE0FFF1FEE0FFF1FEE0FFF1F2E0F2D
:100546003F1FF901EF58F94F9081923008F081E092
:100556009091EF06992361F081E00AC08091E1064F
:100566009091E20601969093E2068093E10680E080
:0E057600DF91CF911F910F91FF90EF900895AC
:100584001F93CF93DF930FB6F8940F928091EB06ED
:1005940081508093EB068091EB068111C6C0809157
:1005A400F20681119BC0C4C0DB011596ED91FC914C
:1005B40016970680F781E02DA489B58986859785ED
:1005C40020893189EC013D832C838089918926859A
:1005D4003785EC013B832A83CF010C9611962D912C
:1005E4003C9112972817390731F480899189129622
:1005F4009C938E931197158A148A8C9181508C93B5
:10060400A285B3858481958126813781EC013D8360
:100614002C838681978124813581EC013B832A8355
:100624009F012E5F3F4F11968D919C9112978217D7
:10063400930731F48681978112969C938E93119738
:10064400138612868C9181508C9386899091F10641
:10065400981710F48093F10690E0DC01AA0FBB1FF9
:10066400AA0FBB1FAA0FBB1F8A0F9B1FDC01AF5829
:10067400B94F11960D90BC91A02DB583A483149607
:100684008D919C9115979783868314968D919C9157
:100694001597EC013B832A8315963C932E9314976C
:1006A400A689B0E0CD01880F991F880F991F880F84
:1006B400991FA80FB91FAF58B94FB387A2878C9160
:1006C4008F5F8C93A091E906B091EA0696895696BD
:1006D4008C91981740F04093EF0605C0E0E0F0E0FD
:1006E40067EA76E041E0DB018C9181115DCFEF2B6D
:1006F40011F00E946E10C091E106D091E20620979D
:1007040061F011E00E94A30181111093EF0621977B
:10071400C9F71092E2061092E1068091EF06882351
:1007240031F00E94420C81E003C080E001C080E00F
:0C0734000F900FBEDF91CF911F91089530
:10074000BF92CF92DF92EF92FF920F931F93CF93BE
:10075000DF9300D000D00F92CDB7DEB78C017D8340
:100760006C83B12CD12CCC24C3947C0181E1E80EA4
:10077000F11C0FB6F8940F92D8015A968C915A97A3
:100780008823E9F081505A968C935A978D919C91C9
:10079000892B29F40E940711F80195838483D801DD
:1007A00018968C91882339F0C80108960E946D0430
:1007B00081110E94420C0F900FBE81E07FC08C819E
:1007C0009D81892B21F40F900FBE80E077C0D1105E
:1007D00005C0CE0101960E944311DC2C0F900FBE84
:1007E0000E9490110FB6F8940F92F801858D8F3FFB
:1007F00009F4158ED8015E968C915E978F3F11F4A7
:100800005E961C920F900FBEBE016C5F7F4FCE01B3
:1008100001960E94F50D811129C0C8010E9438116E
:100820008823F1F0F80180819181892B51F40FB672
:10083000F8940F92848195810E941807B82E0F902A
:100840000FBE6C817D81C7010E94F510C8010E9416
:10085000E80C0E94C20281118CCF0E94420C89CF09
:10086000C8010E94E80C0E94C20283CFC8010E9406
:10087000E80C0E94C202C8010E943811882309F4C2
:1008800078CFBB20D1F00FB6F8940F92F801818990
:10089000882339F00688F789E02D808164E0681BA1
:1008A00001C060E0D80114968D919C9115970E942B
:1008B000A6080F900FBE80E001C080E00F900F905F
:1008C0000F900F900F90DF91CF911F910F91FF909C
:0A08D000EF90DF90CF90BF900895E5
:1008DA00CF93DF93DC011596ED91FC911697068074
:1008EA00F781E02DA489B589C685D7858089918944
:1008FA009D838C83C089D189868597859B838A83CA
:10090A009F01245F3F4F11968D919C9112978217F8
:10091A00930731F48089918912969C938E9311974B
:10092A00158A148A8C9181508C938091EB068111DF
:10093A0060C0A285B385C481D581868197819D8354
:10094A008C83C681D781848195819B838A839F0109
:10095A002E5F3F4F11968D919C91129782179307A4
:10096A0031F48681978112969C938E931197138600
:10097A0012868C9181508C9386899091F1069817F2
:10098A0010F48093F10690E0DC01AA0FBB1FAA0FB6
:10099A00BB1FAA0FBB1F8A0F9B1FDC01AF58B94FA1
:1009AA0011960D90BC91A02DB583A48314968D91B8
:1009BA009C911597978386831496CD91DC91159710
:1009CA003B832A8315963C932E931497A689B0E00D
:1009DA00CD01880F991F880F991F880F991FA80F9B
:1009EA00B91FAF58B94FB387A2878C918F5F8C9389
:1009FA001CC047EA56E0DA011196CD91DC911297B4
:100A0A00D787C6878C819D81918B808B8C819D81B4
:100A1A00DC0113963C932E9312973D832C83558BBE
:100A2A00448BDA018C918F5F8C93A091E906B09187
:100A3A00EA06968956968C91891720F481E080936C
:0C0A4A00EF0601C080E0DF91CF9108951D
:100A5600EF92FF920F931F93CF93DF93EC010E94C7
:100A660090118091DB069091DC06892B11F5E7EC5D
:100A7600F6E0A0E6B0E0B183A08313821282E8E339
:100A8600F6E0F093DC06E093DB0613821282118215
:100A9600108288ED95E013969C938E931297ED93B2
:100AA600FC939093D8068093D7069093DA068093AA
:100AB600D906CE0101978A3F9F4F08F067C09E0175
:100AC6002B5F3F4FCB5FDF47C130D04808F461C092
:100AD6000091D9061091DA060217130708F45CC0D4
:100AE600C091C706D091C806E7ECF6E002C0FE0149
:100AF600EC018A819B818217930720F48881998172
:100B06000097A9F78091DB069091DC06C817D907F4
:100B160009F445C0E080F18084E0E80EF11C88818C
:100B26009981918380834A815B81421B530B4930B3
:100B3600510550F0CE01820F931FFC01538342836F
:100B46003B832A830E949B0C8A819B81081B190B7D
:100B56001093DA060093D9062091D7063091D8066D
:100B66000217130720F41093D8060093D70690684F
:100B76009B838A83198218828091D5069091D60626
:100B860001969093D6068093D5060BC0E12CF12CE6
:100B960008C0E12CF12C05C0E12CF12C02C0E12C9F
:100BA600F12C0E94C202C701DF91CF911F910F91D4
:060BB600FF90EF9008958E
:100BBC009F92AF92BF92CF92DF92EF92FF920F93E0
:100BCC001F93CF93DF9300D000D00F92CDB7DEB739
:100BDC008C016B015D834C83A22EB12C99249394D0
:100BEC007C0188E0E80EF11C0FB6F8940F92F80126
:100BFC00928D838D981718F0F2E0AF1219C04A2D20
:100C0C00B601C8010E94870BF8019189992349F01C
:100C1C00C80141960E946D04882331F00E94420C59
:100C2C0003C081110E94420C0F900FBE81E050C096
:100C3C008C819D81892B21F40F900FBE80E048C0E0
:100C4C00B11005C0CE0101960E944311B92C0F9032
:100C5C000FBE0E9490110FB6F8940F92F801858D7B
:100C6C008F3F09F4158EF801868D8F3F09F4168E8F
:100C7C000F900FBEBE016C5F7F4FCE0101960E949C
:100C8C00F50D81111FC00FB6F8940F92F801928DDB
:100C9C000F900FBE838D98130FC06C817D81C7019F
:100CAC000E94F510C8010E94E80C0E94C20281113A
:100CBC009BCF0E94420C98CFC8010E94E80C0E9466
:100CCC00C20292CFC8010E94E80C0E94C20280E0CE
:100CDC000F900F900F900F900F90DF91CF911F916D
:100CEC000F91FF90EF90DF90CF90BF90AF909F90BF
:020CFC00089559
:100CFE00CF93DF93EB01813061F138F0823009F44C
:100D0E004CC0833009F473C083C0599880B58F7B73
:100D1E00806880BD8FE19EE40197F1F700C000006E
:100D2E00072E000C880B990B0E94BA0D9B01AC018B
:100D3E0060E074E284E799E40E94A81120E030E0BC
:100D4E0040E85FE30E946D110E94741170BD69B995
:100D5E005FC0599A80B58F7B806880BD8FE19EE41D
:100D6E000197F1F700C00000072E000C880B990BBD
:100D7E000E94BA0D9B01AC0160E074E284EF99E42D
:100D8E000E94A81120E030E040E85FE30E946D1160
:100D9E000E94741170BD69B93BC0599880B5806CC2
:100DAE0080BD41E050E060E070E082E40E942D08DA
:100DBE008FE19EE40197F1F700C00000BE01DD0F48
:100DCE00880B990B0E94BA0D9B01AC0160E074E296
:100DDE0084EF9AE40E94A81120E030E040E85FE33F
:100DEE000E946D110E94741170BD69B911C059989D
:100DFE0080B5806C80BD40E050E060E070E082E441
:100E0E000E942D088FE19EE40197F1F700C00000CB
:100E1E0080B5866880BD8AB188618AB9DF91CF912D
:020E2E00089525
:100E30000F931F93CF93DF93FC01892B09F486C096
:100E40002689A091E906B091EA0656968C9128175A
:100E500008F070C084859585992364F0A091E90617
:100E6000B091EA0656963C9184E090E0831B91098C
:100E70009587848730E0C901880F991F880F991FD3
:100E8000880F991F280F391F2F58394F8285938556
:100E90008217930709F045C0EF018F010E5F1F4FC6
:100EA000C8010E94EC0FE091E906F091EA068689FC
:100EB0008E8B9091F106981710F48093F10690E0D4
:100EC000FC01EE0FFF1FEE0FFF1FEE0FFF1F8E0F37
:100ED0009F1FFC01EF58F94F0180F281E02DFD8347
:100EE000EC83848195819F838E83A481B581139641
:100EF0001C930E931297158304838E8990E0FC0156
:100F0000EE0FFF1FEE0FFF1FEE0FFF1FE80FF91F81
:100F1000EF58F94FFB87EA8780818F5F808381E0FC
:100F200016C0A091E906B091EA0656968C91868B80
:100F300081E00DC0A091E906B091EA0681E023A10D
:100F400056969C91291718F080E001C080E0DF914F
:080F5000CF911F910F9108954C
:100F5800FF920F931F93CF93DF93EC01F62E00912E
:100F6800E3061091E4068091E9069091EA0602965C
:100F78000E94EC0FCF3F8FEFD807B1F5FF20A1F10A
:100F8800E5E9F6E0A181B281C091E906D091EA06CF
:100F9800BD83AC83C091E906D091EA0614968D9181
:100FA8009C9115979F838E831496CD91DC9115970C
:100FB8008091E9069091EA0602969B838A83809144
:100FC800E9069091EA06029615969C938E931497DB
:100FD800A091E906B091EA061B96FC93EE931A9746
:100FE80080818F5F80832FC0C00FD11FE091E906F9
:100FF800F091EA06D383C283C017D10768F46091E1
:10100800E9067091EA068091E5069091E6066E5F22
:101018007F4F0E94000F17C06091E9067091EA06A1
:101028008091E7069091E8066E5F7F4F0E94000F5F
:101038008091DF069091E006C817D90720F4D09375
:10104800E006C093DF06DF91CF911F910F91FF90CB
:021058000895F9
:10105A0041155105D9F14130510509F071C0823469
:10106A00A1F018F4813431F008958334C9F084343E
:10107A0011F108952AB381E090E002C0880F991F08
:10108A006A95E2F7822B8ABB089527B381E090E044
:10109A0002C0880F991F6A95E2F7822B87BB0895D1
:1010AA0024B381E090E002C0880F991F6A95E2F7A5
:1010BA00822B84BB089521B381E090E002C0880F9F
:1010CA00991F6A95E2F7822B81BB08958234A9F0B1
:1010DA0018F4813431F008958334D9F0843429F135
:1010EA0008952AB381E090E002C0880F991F6A959B
:1010FA00E2F7809582238ABB089527B381E090E0C6
:10110A0002C0880F991F6A95E2F78095822387BBF0
:10111A00089524B381E090E002C0880F991F6A9570
:10112A00E2F78095822384BB089521B381E090E0A1
:10113A0002C0880F991F6A95E2F78095822381BBC6
:02114A00089506
:10114C000F931F93CF93DF93FC01892B09F466C097
:10115C0093A1961708F4962F8689891709F45EC017
:10116C0024A1213009F05AC0968B24853585332370
:10117C0034F024E030E0291B31093587248790E0D6
:10118C009C01220F331F220F331F220F331F820F9C
:10119C00931F8F58994F2285338528173907F1F5FE
:1011AC00EF018F010E5F1F4FC8010E94EC0F8E895B
:1011BC009091F106981710F48093F10690E0FC01E1
:1011CC00EE0FFF1FEE0FFF1FEE0FFF1F8E0F9F1F67
:1011DC00FC01EF58F94F0180F281E02DFD83EC8387
:1011EC00848195819F838E83A481B58113961C93F2
:1011FC000E931297158304838E8990E0FC01EE0FF9
:10120C00FF1FEE0FFF1FEE0FFF1FE80FF91FEF5828
:10121C00F94FFB87EA8780818F5F8083DF91CF91C5
:06122C001F910F910895CF
:1012320010C00E94821158F00E947B1140F029F4E4
:101242005F3F29F00C94961151110C948A110C9461
:10125200AF110E94131068F39923B1F3552391F350
:10126200951B550BBB27AA2762177307840738F013
:101272009F5F5F4F220F331F441FAA1FA9F335D070
:101282000E2E3AF0E0E832D091505040E695001C24
:10129200CAF72BD0FE2F29D0660F771F881FBB1FDE
:1012A200261737074807AB07B0E809F0BB0B802DBC
:1012B200BF01FF2793585F4F3AF09E3F510578F0E8
:1012C2000C9496110C948A115F3FE4F3983ED4F388
:1012D200869577956795B795F7959F5FC9F7880FBC
:1012E200911D9695879597F90895E1E0660F771F0E
:1012F200881FBB1F621773078407BA0720F0621B9F
:0E130200730B840BBA0BEE1F88F7E09508956D
:1013100031E1FC013083319722E220833197A3E34E
:10132000A083319760833197708331971082319712
:1013300060E8608331971082319762E06083319773
:1013400063E06083319764E06083319765E0608398
:10135000319766E06083319767E06083319768E09A
:101360006083319769E06083319760E160833197F2
:101370003083319732E13083319733E130833197D5
:1013800034E13083319735E13083319736E1308372
:10139000319737E13083319738E13083319739E144
:1013A0003083319730E23083319731E230833197A7
:1013B0002083319723E220833197408331975083F4
:1013C000319726E22083319727E22083319728E264
:1013D0002083319729E22083319720E320833197BE
:0813E00021E3208386970895A4
:1013E80011C00E947B1138F00E94821120F039F45C
:1013F8009F3F19F426F40C94AF110EF4E095E7FB27
:101408000C949611E92F0E94131058F3BA1762072B
:1014180073078407950720F079F4A6F50C948911D1
:101428000EF4E0950B2EBA2FA02D0B01B9019001F7
:101438000C01CA01A0011124FF27591B99F0593F3B
:1014480050F4503E68F11A16F040A22F232F342F83
:101458004427585FF3CF469537952795A795F040D1
:101468005395C9F77EF41F16BA0B620B730B840BE6
:10147800BAF09150A1F0FF0FBB1F661F771F881F9E
:10148800C2F70EC0BA0F621F731F841F48F48795F6
:1014980077956795B795F7959E3F08F0B0CF9395E8
:0E14A800880F08F09927EE0F97958795089505
:1014B6008091EB06882321F081E08093EF06089562
:1014C6001092EF062091F106822F90E0FC01EE0FBC
:1014D600FF1FEE0FFF1FEE0FFF1FE80FF91FEF585C
:1014E600F94F3081311111C02150822F90E0FC015B
:1014F600EE0FFF1FEE0FFF1FEE0FFF1FE80FF91F86
:10150600EF58F94F3081332379F3AC01440F551F5F
:10151600440F551F440F551F480F591FDA01AF5886
:10152600B94F1196ED91FC9112970280F381E02D4F
:101536001296FC93EE9311974C58594FE417F50702
:1015460029F442815381FD0152834183FC01EE0F50
:10155600FF1FEE0FFF1FEE0FFF1F8E0F9F1FFC01D9
:10156600EF58F94F0180F281E02D868197819093A3
:0C157600EA068093E9062093F106089530
:10158200EF92FF920F931F93CF93DF93FC01362FBD
:10159200892B09F44CC0238D222309F44AC0022F5F
:1015A20010E0448DE42EF12C8FEF9FEFB8010E94E2
:1015B200CD106E157F0508F43EC0EF010FB6F8940A
:1015C2000F9260817181CB01249F800D911D1124A6
:1015D20095838483128E73836283015011090E9D59
:1015E200C0010F9D900D1E9D900D1124860F971F17
:1015F200978386838FEF858F868F31110CC080850C
:10160200882389F0CF0108960E946D04882359F03F
:101612000E94420C08C0CF0108960E942A11CE01F6
:1016220041960E942A110F900FBE81E005C080E012
:1016320003C080E001C080E0DF91CF911F910F9144
:06164200FF90EF900895F7
:101648000F931F93CF93DF93FC01892B09F451C0AB
:1016580084A1815084A3268993A1291709F44BC03A
:1016680081114BC0EF018F010E5F1F4FC8010E940F
:10167800EC0F8BA18E8B24E030E0281B31093D87CD
:101688002C879091F106981710F48093F10690E05A
:10169800FC01EE0FFF1FEE0FFF1FEE0FFF1F8E0F57
:1016A8009F1FFC01EF58F94F0180F281E02DFD8367
:1016B800EC83848195819F838E83A481B581139661
:1016C8001C930E93129715830483EE89F0E0CF01E3
:1016D800880F991F880F991F880F991FE80FF91F06
:1016E800EF58F94FFB87EA8780818F5F808381E01D
:1016F80005C080E003C080E001C080E0DF91CF91A9
:061708001F910F910895EE
:10170E000F931F93CF93DF93EC01042F1A8D4C8D03
:10171E0041110CC088819981892B09F042C08C81BE
:10172E009D810E94240B1D821C8242C0011117C094
:10173E0050E08A819B810E9459112C8D8A819B8158
:10174E00820F911D9B838A832C813D818217930783
:10175E0050F1888199819B838A8380E029C050E073
:10176E008E819F810E9459118C8D90E0919581956B
:10177E0091092E813F81280F391F3F832E83488187
:10178E0059812417350730F42C813D81820F931F28
:10179E009F838E83023049F4112349F0115080E06B
:1017AE0007C080E005C080E003C080E001C080E09B
:0E17BE001F5F1A8FDF91CF911F910F91089539
:1017CC000F920FB6F8940F921F9211242F923F9202
:1017DC004F925F926F927F928F929F92AF92BF9235
:1017EC00CF92DF92EF92FF920F931F932F933F9321
:1017FC004F935F936F937F938F939F93AF93BF930D
:10180C00CF93DF93EF93FF93A091E906B091EA0693
:10181C000DB60D920EB60D920E94A30181110E947D
:10182C005B0AA091E906B091EA06CD91CDBFDD919E
:10183C00DEBFFF91EF91DF91CF91BF91AF919F915F
:10184C008F917F916F915F914F913F912F911F914C
:10185C000F91FF90EF90DF90CF90BF90AF909F9043
:10186C008F907F906F905F904F903F902F901F9034
:08187C000F900FBE0F900895BC
:101884000F920FB6F8940F921F9211242F923F9249
:101894004F925F926F927F928F929F92AF92BF927C
:1018A400CF92DF92EF92FF920F931F932F933F9368
:1018B4004F935F936F937F938F939F93AF93BF9354
:1018C400CF93DF93EF93FF93A091E906B091EA06DB
:1018D4000DB60D920EB60D920E945B0AA091E90618
:1018E400B091EA06CD91CDBFDD91DEBFFF91EF91BE
:1018F400DF91CF91BF91AF919F918F917F916F9124
:101904005F914F913F912F911F910F91FF90EF9015
:10191400DF90CF90BF90AF909F908F907F906F900B
:101924005F904F903F902F901F900F900FBE0F909D
:02193400089514
:10193600CF93DF93DC01E7ECF6E001C0F9012081EB
:1019460031812A173B07D0F382819381AF01480F7B
:10195600591FA417B50749F412964D915C91139738
:10196600840F951F93838283DF0112968D919C913C
:101976001397ED01C80FD91F2C173D07D9F42091F5
:10198600DB063091DC06C217D30781F02A813B8142
:10199600820F931F13969C938E931297C081D181C9
:1019A6008881998111969C938E9307C01196DC933A
:1019B600CE9303C011963C932E93AE17BF0711F03A
:0A19C600B183A083DF91CF91089553
:1019D000EF92FF920F931F93CF938C010FB6F89461
:1019E0000F92FC01C68D1C16ACF48189811106C0D2
:1019F00011C0F8018189811105C00CC07801F1E1A5
:101A0000EF0EF11CC7010E946D0481110E94A41108
:101A1000C15079F78FEFF801868F0F900FBE0FB688
:101A2000F8940F92C58D1C16ACF48085811106C008
:101A300011C0F8018085811105C00CC07801F8E063
:101A4000EF0EF11CC7010E946D0481110E94A411C8
:101A5000C15079F78FEFF801858F0F900FBECF91AE
:0A1A60001F910F91FF90EF90089581
:101A6A00FF920F931F93CF93DF93282F362F88234C
:101A7A0059F1682F70E08FEF9FEF0E94CD10832FEE
:101A8A0090E06817790718F1239FC00111248F3D50
:101A9A005FEF9507F8F4F42E032F122F81960E9418
:101AAA002B05EC010097C1F0011103C099838883CB
:101ABA0003C08196998388831B8F0C8F61E0CE01C6
:101ACA000E94C10AF8A208C0C0E0D0E005C0C0E088
:101ADA00D0E002C0C0E0D0E0CE01DF91CF911F91EB
:061AEA000F91FF9008952A
:101AF000CF92DF92EF92FF920F931F93CF93DF93DA
:101B00007C018B01992324F4882799278E199F093A
:101B1000F801C0E0D0E00F2EFAE0CF2ED12CF02D4E
:101B200001C0E9019E012F5F3F4FB6010E94E11005
:101B3000805D8193862F972F1816190694F3FF2046
:101B40003CF4F801E20FF31F8DE280832F5F3F4FDB
:101B5000F801E20FF31F1082C8010E943510DF91D7
:101B6000CF911F910F91FF90EF90DF90CF9008954C
:101B7000E89409C097FB3EF4909580957095619527
:101B80007F4F8F4F9F4F9923A9F0F92F96E9BB27DD
:101B90009395F695879577956795B795F111F8CF59
:101BA000FAF4BB0F11F460FF1BC06F5F7F4F8F4FC4
:101BB0009F4F16C0882311F096E911C0772321F0BA
:101BC0009EE8872F762F05C0662371F096E8862F52
:101BD00070E060E02AF09A95660F771F881FDAF7A9
:0A1BE000880F9695879597F90895F0
:101BEA00CF93DF930FB6F8940F922091E3063091CA
:101BFA00E406DB014D915C914F3FBFEF5B0719F1A2
:101C0A00EC01E981FA81A091EE06B881BA1741F098
:101C1A002E173F0728F0FB011182108281E014C0C1
:101C2A002E1B3F0B2417350748F4FB01421B530BAD
:101C3A00518340830E94431180E006C0DB011D925C
:101C4A001C9281E001C080E00F900FBEDF91CF911E
:021C5A000895EB
:101C5C000EE916E00F2EF1E7EF2EF6E0FF2EF02D39
:101C6C008091F306882329F10FB6F8940F92D801CE
:101C7C001596ED91FC911697C681D781CE010296EF
:101C8C000E94EC0F8091F20681508093F2068091B5
:101C9C00F30681508093F3060F900FBE8F89988DB9
:101CAC000E94CF0ECE010E94CF0E8091F3068111BF
:101CBC00DBCFF7018081823098F20E94420CD0CFAA
:101CCC001BBC89EF8ABD8BE08EBD89B7806189BF53
:101CDC00A091E906B091EA06CD91CDBFDD91DEBFB2
:101CEC00FF91EF91DF91CF91BF91AF919F918F9128
:101CFC007F916F915F914F913F912F911F910F9118
:101D0C00FF90EF90DF90CF90BF90AF909F908F900F
:101D1C007F906F905F904F903F902F901F900F90FF
:0A1D2C000FBE0F90089581E00895A6
:101D360060E875E280E00E947F0688E596E00E94F2
:101D4600A4100F2EFFECEF2EF6E0FF2EF02D01E093
:101D560020E030E048EC50E065E676E081E39FE085
:101D66000E9469000F2EFDECEF2EF6E0FF2EF02DFF
:101D760020E030E048EC50E06BE676E081E69FE05C
:101D86000E94690081E00E948A109093D206809397
:081D9600D1060E94C00FFFCF2F
:101D9E00CF93DF93009751F1FC0134972281338169
:101DAE00332324F540815181452B01F5EF013F7717
:101DBE00338322830E9490112091D9063091DA0646
:101DCE008A819B81820F931F9093DA068093D906A6
:101DDE00CE010E949B0C8091D3069091D406019661
:101DEE009093D4068093D3060E94C202DF91CF91C6
:021DFE00089546
:101E0000CF93DF93EB01488159814F3F2FEF52076A
:101E100021F4FC01A781B0850DC0DC01139601C03F
:101E2000DF011296ED91FC911397208131814217C9
:101E30005307B0F71296ED91FC911397FB83EA8359
:101E4000D583C483BD83AC831396DC93CE93129762
:101E500099878887FC0120812F5F2083DF91CF91B4
:021E60000895E3
:101E620081E090E00E94B91061E070E08091D106BB
:101E72009091D2060E94A0038130E9F48091CB06B2
:101E82009091CC0601969093CC068093CB060E944B
:101E920052108CE396E00E94A41020E040E050E053
:101EA20060E070E08091D1069091D2060E94DE053A
:101EB2000E94420CD9CF83E496E00E94A410D4CFB2
:101EC20081E090E00E94B91061E070E08091D1065B
:101ED2009091D2060E94A0038130E9F48091CB0652
:101EE2009091CC0601969093CC068093CB060E94EB
:101EF20052108AE496E00E94A41020E040E050E0F4
:101F020060E070E08091D1069091D2060E94DE05D9
:101F12000E94420CD9CF81E596E00E94A410D4CF52
:101F22000E941B1088F09F5798F0B92F9927B7513C
:101F3200B0F0E1F0660F771F881F991F1AF0BA956B
:101F4200C9F714C0B13091F00E948911B1E008952F
:101F52000C948911672F782F8827B85F39F0B93F21
:101F6200CCF3869577956795B395D9F73EF490951E
:0E1F72008095709561957F4F8F4F9F4F08951A
:101F8000EF92FF920F930F2EFDEDEF2EF6E0FF2E56
:101F9000F02D00E020E030E045E550E062EC76E036
:101FA0008EE29EE00E946900813081F4F8948FEF08
:101FB0009FEF9093E0068093DF0681E08093F00628
:101FC0001092E4061092E3060E94660E8091EC06E1
:081FD0000F91FF90EF900895BE
:101FD800CF93DF93FC01A085B185C281D381848131
:101FE80095819D838C83C481D581828193819B83D4
:101FF8008A8311968D919C911297E817F90731F40D
:102008008481958112969C938E93119711861086E0
:0E2018008C9181508C938C91DF91CF91089523
:1020260057FD9058440F551F59F05F3F71F0479583
:10203600880F97FB991F61F09F3F79F08795089568
:10204600121613061406551FF2CF4695F1DF08C087
:10205600161617061806991FF1CF869571056105A4
:04206600089408953D
:10206A00FC0101900020E9F73197E81BF90B9F0169
:10207A0021503109121613067CF4E80FF91FDC010E
:10208A0080E090E04C9152915D93408301962150FB
:0A209A00310982179307B4F308958B
:1020A400CF93DF93CDB7DEB760970FB6F894DEBF5A
:1020B4000FBECDBFBE016F5F7F4F0E94780DCE0172
:1020C40001960E94A41060960FB6F894DEBF0FBE6E
:0820D400CDBFDF91CF9108950B
:1020DC00E091E706F091E8068081811107C08FEF4F
:1020EC009FEF9093E0068093DF060895E091E7065A
:1020FC00F091E8060580F681E02D80819181909326
:08210C00E0068093DF06089550
:10211400CF93DF93482F60E081E00E94350DEC01FE
:10212400009761F01D821C82198218821E8220E0B1
:1021340040E050E060E070E00E94DE05CE01DF91F7
:04214400CF9108959A
:10214800CF93DF93EC018881882361F021960E9468
:102158009C118FE39CE90197F1F700C00000899179
:0A2168008111F5CFDF91CF910895AA
:10217200CF93DF93EC01892B51F00E94901160E024
:10218200CE010E94AC070E94C202811102C00E94CD
:08219200420CDF91CF9108958A
:10219A00AA1BBB1B51E107C0AA1FBB1FA617B70783
:1021AA0010F0A61BB70B881F991F5A95A9F780959F
:0821BA009095BC01CD010895D0
:1021C20097FB072E16F4009407D077FD09D00E94E2
:1021D200CD1007FC05D03EF4909581959F4F089550
:0821E200709561957F4F08958F
:1021EA00CF93DF93EB016091E9067091EA06645F91
:1021FA007F4F0E94000F61E0CE010E94AC07DF9181
:04220A00CF910895D3
:10220E008091E9069091EA06892B39F0E091E90672
:10221E00F091EA0684A18F5F84A38091E9069091E4
:04222E00EA0608951F
:10223200092E0394000C11F4882352F0BB0F40F4D2
:10224200BF2B11F460FF04C06F5F7F4F8F4F9F4F12
:022252000895ED
:10225400FC010396928381832FEF3FEF3483238322
:0C226400968385839087878310820895FD
:102270000FB6F8940F92FC01928D0F900FBE81E083
:06228000911180E00895B9
:102286002091EE06FC0120832091E3063091E406BE
:062296003283218308954C
:10229C00EC010E94B7110E94B611CE010E94B81138
:0622AC00CE010E94B411F6
:1022B200FB01DC01480F591FA417B50719F0219142
:0622C2002D93FACF0895F0
:1022C800FC01480F591FE417F50711F06193FBCF84
:0222D800089567
:0E22DA005058BB27AA270E94F4090C94191132
:0E22E8000E94910F6894B1110C948A11089510
:0E22F60000240A941616170618060906089505
:0E23040000240A941216130614060506089506
:0E231200E894BB2766277727CB0197F908953B
:0C2320008091EB068F5F8093EB06089520
:0C232C0097F99F6780E870E060E008957A
:082338005D9BFECF8CB90895F6
:08234000FC01118610860895CE
:0823480081E08093EF06089587
:082350000E9419090C941911F7
:062358000E94E60B18953F
:06235E009FEF80EC0895E2
:042364000C940000D5
:042368000E94670068
:02236C000895D2
:02236E000895D0
:022370000895CE
:10237200646F6E65310D0062757379310D00646FA3
:102382006E65320D0062757379320D0068656C6C92
:102392006F20776F726C640D007461736B3100741F
:0523A20061736B3200C5
:0523A70049444C450013
:0123AC00032D
:00000001FF
